:100000000C942A000C943F000C943F000C943F0089
:100010000C943F000C943F000C943F000C943F0064
:100020000C943F000C943F000C943F000C943F0054
:100030000C943F000C943F000C943F000C943F0044
:100040000C943F000C943F000C943F000C943F0034
:100050000C943F0011241FBECFE5D4E0DEBFCDBF1E
:1000600013E0A0E6B0E0E0EDF1E202C005900D92F1
:10007000A037B107D9F70E94D20F0C94E6100C9468
:10008000000098E029B387FF02C0286001C0277FE5
:100090002BBB880F29B32D7F2BBB21E32A95F1F7CA
:1000A000000029B322602BBB915061F708950F9394
:1000B000CF93DF9300D01F92CDB7DEB78150E0E140
:1000C000F0E002C0F595E7958A95E2F7E8BB802F4E
:1000D00029834A836B830E9441002981822F0E94D9
:1000E00041004A81842F0E94410089B38A7F8BBBE3
:1000F00081E38A95F1F700006B8189B3613011F4D7
:10010000856001C084608BBB0F900F900F90DF91D2
:10011000CF910F9108950F93542F853080F565305E
:1001200070F5453060F5962F990F990F690F680F9C
:1001300059F1262F30E09FEF960F983058F4215058
:10014000310991E001C0990F2A95EAF7492F00E0A3
:1001500020E018C06950683050F4B9016950710945
:1001600021E001C0220F6A95EAF700E00AC02151A0
:10017000310901E001C0000F2A95EAF701C000E053
:1001800020E040E060E004C000E020E040E061E00A
:1001900081E0850F0E9457000F9108955F926F9242
:1001A0007F928F929F92AF92BF92CF92DF92EF9207
:1001B000FF920F931F93CF93DF93682EE12CF12CC6
:1001C000EE9C6001EF9CD00CD00C1124560181E014
:1001D000A81AB1088FEFC81AD80A83E3782ECEEF99
:1001E000DFEF5C2E53945394CC9F4001CD9F900C35
:1001F000900C11240EEF1FEF62E0600F009F900142
:10020000019F300D300D1124280D391D2A153B0595
:100210003CF0C216D30624F0462D852D0E948B009B
:100220000F5F1F4F0330110539F72196C330D105F9
:10023000C1F67A947110D3CF8FEFE81AF80A84E0F0
:10024000E816F10409F0BCCFDF91CF911F910F9117
:10025000FF90EF90DF90CF90BF90AF909F908F90E6
:100260007F906F905F9008956F927F928F929F9290
:10027000AF92BF92CF92DF92EF92FF920F931F93B4
:10028000CF93DF93782E94E0F92EFA94FF9C6001CF
:100290001124560181E0A81AB1088FEFC81AD80AB4
:1002A00083E3E82ECEEFDFEF6C2E63946394CC9F54
:1002B0004001CD9F900C900C11240EEF1FEF62E0D7
:1002C000600F009F9001019F300D300D1124280D0B
:1002D000391D2A153B053CF0C216D30624F0472DE4
:1002E000862D0E948B000F5F1F4F0330110539F7D9
:1002F0002196C330D105C1F6EA94E110D3CFF110B5
:10030000C4CFDF91CF911F910F91FF90EF90DF90BD
:10031000CF90BF90AF909F908F907F906F900895F7
:100320007F928F929F92AF92BF92CF92DF92EF9285
:10033000FF920F931F93CF93DF93C82EE12CF12CE4
:10034000EE9C5001EF9CB00CB00C11248FE1D82E24
:10035000CEEFDFEF7C2E73947394CC9F4001CD9F42
:10036000900C900C11240EEF1FEF62E0600F009FC5
:100370009001019F300D300D1124280D391DA2165A
:10038000B30624F04C2D872D0E948B000F5F1F4F6A
:100390000330110551F72196C330D105D9F6DA940F
:1003A000D110D6CF8FEFE81AF80A84E0E816F104EE
:1003B00039F6DF91CF911F910F91FF90EF90DF9071
:1003C000CF90BF90AF909F908F907F900895AF9205
:1003D000BF92CF92DF92EF92FF920F931F93CF9332
:1003E000DF93B82EA42E85E0E82EF12CC62E660FE2
:1003F000DD082F2D3B2D3203800111240C0D1D1D16
:10040000C0E0D0E00C171D0729F44A2D602F8F2D76
:100410000E948B002196C530D105A1F7F394EA9490
:10042000E110E7CFDF91CF911F910F91FF90EF90F7
:10043000DF90CF90BF90AF9008952F923F924F9250
:100440005F926F927F928F929F92AF92BF92CF9264
:10045000DF92EF92FF920F931F93CF93DF93CDB76D
:10046000DEB7E7970FB6F894DEBF0FBECDBF8AE0C8
:10047000E0E6F0E0DE015F9601900D928A95E1F7EB
:100480008AE0EAE6F0E0DE01559601900D928A9549
:10049000E1F78AE0E4E7F0E0DE011B9601900D92BF
:1004A0008A95E1F78AE0EEE7F0E0DE01119601902F
:1004B0000D928A95E1F7CE0101967C014E019BE0F9
:1004C000890E911C5E01E5E1AE0EB11C6E01FFE1EB
:1004D000CF0ED11C10E08DE1382E270191E0491A92
:1004E00051083401E1E06E1A7108C50101979AA71D
:1004F00089A7F6013197FCA7EBA7C70102979EA732
:100500008DA7F4013297F8ABEFA7C50102979AAB1C
:1005100089ABF6013297FCABEBABF7010081F4013C
:100520002081F5014081F601608183E00E9457003F
:1005300086E69EE00197F1F70000112309F454C00C
:10054000F2015081F3013081E9A5FAA59081EBA574
:10055000FCA52080052F232F492F622D82E03EAB82
:100560005DAB9FAB0E945700E6E6FEE03197F1F7E6
:1005700000005DA9052F3EA9232F9FA9492F622DB9
:1005800084E00E94570086E69EE00197F1F70000A4
:10059000113051F1EDA5FEA55081EFA5F8A93081EC
:1005A000E9A9FAA99081EBA9FCA92080052F232FA6
:1005B000492F622D81E03EAB5DAB9FAB0E9457009F
:1005C000E6E6FEE03197F1F700005DA9052F3EA9B0
:1005D000232F9FA9492F622D85E00E94570086E6B0
:1005E0009EE00197F1F700003A94311096CF1F5F1B
:1005F0009FEFE91AF90AEFEF8E1A9E0AFFEFAF1A82
:10060000BF0A8FEFC81AD80A1A3009F064CFE796EC
:100610000FB6F894DEBF0FBECDBFDF91CF911F9113
:100620000F91FF90EF90DF90CF90BF90AF909F9091
:100630008F907F906F905F904F903F902F90089594
:100640002F923F924F925F926F927F928F929F92E2
:10065000AF92BF92CF92DF92EF92FF920F931F93D0
:10066000CF93DF93CDB7DEB768970FB6F894DEBFB0
:100670000FBECDBF6C01688B85E04E012BE0820E72
:10068000911CD401E82F1D92EA95E9F71E01F6E0CE
:100690002F0E311CD101E82F1D92EA95E9F79E013A
:1006A0002F5F3F4F3901D9011D928A95E9F775E017
:1006B00035E0320D3D8B91E038899317D8F5E12C68
:1006C000F12C11E01E0D33E026014E0C5F1CA3013E
:1006D0004E0D5F1D5A8B498BD101AE0DBF1DBC8BDA
:1006E000AB8B5401AE0CBF1CD2010C91E989FA8985
:1006F0002081AB89BC894C91F5016081812F3F8BB2
:10070000788F9E8B0E94570000E020E040E060E080
:10071000812F0E9457003F893150788D9E89311179
:10072000E3CFFFEFEF1AFF0A25E0E216F10449F6E6
:100730009F5FC2CF9401C3015601F1016081DC01CA
:100740004C91D5011C9105E0562F5170A0E84A9FAD
:100750007001112466956E29B0E81B9F7001112469
:1007600046954E291695015079F76193D9015D930D
:100770009D01DC014D93CD01D5011D935D015D8986
:100780005E13DCCF715009F096CF68960FB6F894DF
:10079000DEBF0FBECDBFDF91CF911F910F91FF90B4
:1007A000EF90DF90CF90BF90AF909F908F907F9011
:1007B0006F905F904F903F902F9008950F931F93ED
:1007C000CF93DF9300D000D01F92CDB7DEB78E015C
:1007D0000F5F1F4F95E0F80111929A95E9F7B80164
:1007E0000E946A0F64E1C8010E9420030F900F90DD
:1007F0000F900F900F90DF91CF911F910F9108955F
:100800002F923F924F925F926F927F928F929F9220
:10081000AF92BF92CF92DF92EF92FF920F931F930E
:10082000CF93DF93CDB7DEB76A970FB6F894DEBFEC
:100830000FBECDBF6C01562F85E05E012BE0A20EEE
:10084000B11CD501E82F1D92EA95E9F72E01F6E0DB
:100850004F0E511CD201E82F1D92EA95E9F79E0137
:100860002F5F3F4F4901D9011D928A95E9F711E0A9
:1008700095E0940D33243394351608F042C0E12CF2
:10088000F12C222423942E0C34E0B4016E0D7F1D34
:10089000798B688BD601AE0DBF1DBB8BAA8BF20185
:1008A000EE0DFF1DFD8BEC8BB5016E0D7F1D7F8B5B
:1008B0006E8BE889F9890081AA89BB892C91EC8922
:1008C000FD894081AE89BF896C91822D388F598F07
:1008D0009A8F0E94570000E020E040E060E0822D07
:1008E0000E945700388D3150598D9A8D3111E1CFCA
:1008F000BFEFEB1AFB0AE5E0EE16F10411F63394B4
:10090000BBCF1230C1F1133009F460C0113009F0CF
:1009100086C07501B4011601F201D1018C9181FBF1
:10092000222720F9D7012D937D01282F2470322F03
:10093000330F330F330F20812F7D232B2193282F4B
:10094000207130E043E0359527954A95E1F7DB01CA
:100950003C913D7F232B322F3F77282F2072220F8F
:10096000220F232B2D93BD01897CD1018D931D0175
:100970009E13D3CF54C0B5017401F2018081282F9A
:100980002072220F822B8F7DDB012C9120FB6624AD
:1009900060F8712C9301220F331F822B81931D92DB
:1009A000BD01D7012C9121FB882780F9822B282FAC
:1009B000207830E035952795359527958D7F822BCA
:1009C0008F778D937D019E13D9CF29C0B601140175
:1009D000F2012081822F8074880F822B282F2270B1
:1009E000220F220F8D7B822B8193D1018C91B0E855
:1009F0008B9F70011124DB012C91E22AED92BD0145
:100A0000282F207230E035952795359527958E7FD4
:100A1000282B2F7DD1012D931D019E13DACF1F5F4F
:100A2000153009F027CF6A960FB6F894DEBF0FBED7
:100A3000CDBFDF91CF911F910F91FF90EF90DF908D
:100A4000CF90BF90AF909F908F907F906F905F906E
:100A50004F903F902F9008950F931F93CF93DF9364
:100A600000D000D01F92CDB7DEB78E010F5F1F4FB1
:100A700095E0F80111929A95E9F7B8010E947F0F6D
:100A800064E1C8010E9400040F900F900F900F9036
:100A90000F90DF91CF911F910F910895CF92DF9228
:100AA000EF92FF920F931F93CF93DF936C017B0123
:100AB000D0E0C0E003E310E081E0C816D10479F48F
:100AC00082E0E816F10419F44D2F6C2F06C083E084
:100AD000E816F10459F54C2F6D2F812F25C082E0C7
:100AE000C816D10471F481E0E816F10419F44D2F11
:100AF000612F11C083E0E816F104C1F44C2F612F7F
:100B000012C083E0C816D10489F481E0E816F1042C
:100B100021F4412F6D2F8C2F07C082E0E816F104DD
:100B200029F4412F6C2F8D2F0E948B001F5F1530F1
:100B300019F6015009F0BFCFCF5FC53009F0BACF29
:100B4000DF5FD53009F0B5CFDF91CF911F910F91C5
:100B5000FF90EF90DF90CF900895CF92DF92EF92C9
:100B6000FF920F931F93CF93DF936C017B01C5E03E
:100B7000C150D5E0D15003E310E081E0C816D104A4
:100B800079F482E0E816F10419F44C2F6D2F06C0B9
:100B900083E0E816F10459F54D2F6C2F812F25C005
:100BA00082E0C816D10471F481E0E816F10419F46A
:100BB0004C2F612F11C083E0E816F104C1F44D2FD2
:100BC000612F12C083E0C816D10489F481E0E816D1
:100BD000F10421F4412F6C2F8D2F07C082E0E8161D
:100BE000F10429F4412F6D2F8C2F0E948B001F5F81
:100BF000153019F6015009F0BFCFD111BBCFC1118B
:100C0000B7CFDF91CF911F910F91FF90EF90DF90C1
:100C1000CF900895EF92FF920F931F93CF93DF939E
:100C20007C01C0E005E1D0E010E081E0E816F104CD
:100C300021F4412F6D2F8C2F0FC082E0E816F104B4
:100C400021F44D2F6C2F812F07C083E0E816F104AB
:100C500029F44C2F612F8D2F0E948B001F5F1530C0
:100C600021F7DF5FD53001F70150E9F6CF5FC530DE
:100C7000C9F6DF91CF911F910F91FF90EF900895EA
:100C8000EF92FF920F931F93CF93DF937C01C5E008
:100C9000C15005E1D0E010E081E0E816F10421F454
:100CA000412F6D2F8C2F0FC082E0E816F10421F444
:100CB0004D2F6C2F812F07C083E0E816F10429F433
:100CC0004C2F612F8D2F0E948B001F5F153021F755
:100CD000DF5FD53001F70150E9F6C111D9CFDF91BF
:100CE000CF911F910F91FF90EF9008951F93CF9395
:100CF000DF93D0E0C0E010E04D2F6C2F812F0E94D9
:100D00008B002FEF8FE392E0215080409040E1F77D
:100D100000C000001F5F153079F7CF5FC53059F76D
:100D2000DF5FD53039F7DF91CF911F9108951F9381
:100D3000CF93DF93C5E0C150D5E0D15015E01150FD
:100D40004C2F6D2F812F0E948B002FEF8FE392E0AD
:100D5000215080409040E1F700C000001111EFCF1A
:100D6000D111EBCFC111E7CFDF91CF911F91089542
:100D70000F93CF93DF93DEEFC1E00FEF2FEF4FEF35
:100D800061E08C2F0E945700CF5FC630B1F7D15081
:100D900099F7DEEFC1E000E020E040E060E08C2F5A
:100DA0000E945700CF5FC630B1F7D15099F7DF915D
:100DB000CF910F910895CF93C0E08C2F0E94CE0069
:100DC000CF5FC530D1F7CF910895CF93C5E0C15023
:100DD0008C2F0E94CE00C111FACFCF9108954F926F
:100DE0005F926F927F928F929F92AF92BF92CF92BB
:100DF000DF92EF92FF920F931F93CF93DF93E12C3B
:100E0000F12CEE9C6001EF9CD00CD00C112446011B
:100E100081E0881A91088FEFC81AD80A85E1A82EB8
:100E2000CEEFDFEF5C2E53945394CC9F3001CD9FD7
:100E3000700C700C11240EEF1FEF92E0492E400E43
:100E4000009F9001019F300D300D1124260D371D9C
:100E50002815390534F40F5F1F4F0330110569F76A
:100E60000EC0C216D306BCF3B12C4B2D642D852DBC
:100E70000E948B00B39485E0B812F7CFECCF219697
:100E8000C330D10579F6AA94A110CACF8FEFE81A22
:100E9000F80A84E0E816F10409F0B3CFDF91CF91AE
:100EA0001F910F91FF90EF90DF90CF90BF90AF9088
:100EB0009F908F907F906F905F904F900895CF9309
:100EC000C0E08C2F0E943401CF5FC530D1F7CF91A5
:100ED0000895CF93C5E0C1508C2F0E943401C111F9
:100EE000FACFCF9108955F926F927F928F929F92E7
:100EF000AF92BF92CF92DF92EF92FF920F931F9328
:100F0000CF93DF9324E0F22EFA94FF9C600111242A
:100F1000560181E0A81AB1088FEFC81AD80A95E1E6
:100F2000792ECEEFDFEF6C2E63946394CC9F40015B
:100F3000CD9F900C900C11240EEF1FEF82E0582EE5
:100F4000500E009F9001019F300D300D1124280D8F
:100F5000391D2A153B0534F40F5F1F4F033011056F
:100F600069F70EC0C216D306BCF3E12C4E2D652DD9
:100F7000862D0E948B00E39485E0E812F7CFECCF3A
:100F80002196C330D10579F67A947110CACFF11049
:100F9000BBCFDF91CF911F910F91FF90EF90DF902A
:100FA000CF90BF90AF909F908F907F906F905F9009
:100FB0000895CF93C0E08C2F0E949001CF5FC53081
:100FC000D1F7CF910895CF93C5E0C1508C2F0E94E7
:100FD0009001C111FACFCF9108954F925F926F9215
:100FE0007F928F929F92AF92BF92DF92EF92FF9289
:100FF0000F931F93CF93DF93CDB7DEB7A8970FB6AC
:10100000F894DEBF0FBECDBF8AE0E0E6F0E0DE017F
:101010005F9601900D928A95E1F78AE0EAE6F0E0AA
:10102000DE01559601900D928A95E1F78AE0E4E79A
:10103000F0E0DE011B9601900D928A95E1F78AE0BF
:10104000EEE7F0E0DE01119601900D928A95E1F74E
:10105000E12CF12C84E6D82E44244394512C4C0EE0
:101060005D1E4E0C5F1C2BE0622E712C6C0E7D1EE3
:101070006E0C7F1C35E1832E912C8C0E9D1E8E0CE8
:101080009F1C4FE1A42EB12CAC0EBD1EAE0CBF1C9C
:1010900011E0F2010081F3012081F4014081F501AA
:1010A0006081812F0E9457001F5F163091F7DA94FC
:1010B000D110EECFFFEFEF1AFF0A8AE0E816F10435
:1010C00049F6A8960FB6F894DEBF0FBECDBFDF91EC
:1010D000CF911F910F91FF90EF90DF90BF90AF9055
:1010E0009F908F907F906F905F904F9008951F9387
:1010F000CF93DF93D0E0C0E013E34D2F6C2F8FEF41
:101100000E94E7011150C9F7CF5FC930A9F7DF5F2F
:10111000D53089F7DF91CF911F9108951F93CF9319
:10112000DF93C5E0C150D0E013E34C2F6D2F8FEF5C
:101130000E94E7011150C9F7DF5FD930A9F7C1114B
:10114000F1CFDF91CF911F9108951F93CF93DF933C
:10115000C0E015E1D0E04D2F6C2F8FEF0E94E7012A
:10116000DF5FD530C1F71150A9F7CF5FC93089F7DC
:10117000DF91CF911F9108951F93CF93DF93C0E02C
:10118000D9E0D15013E34C2F6D2F8FEF0E94E70170
:101190001150C9F7D111F5CFCF5FC53089F7DF9175
:1011A000CF911F9108951F93CF93DF93C5E0C15056
:1011B000D9E0D15013E34C2F6D2F8FEF0E94E70140
:1011C0001150C9F7D111F5CFC111F1CFDF91CF91F6
:1011D0001F9108951F93CF93DF93C9E0C15015E18C
:1011E000D0E04D2F6C2F8FEF0E94E701DF5FD530ED
:1011F000C1F71150A9F7C111F1CFDF91CF911F9124
:1012000008951F93CF93DF93C0E0D5E0D15013E34F
:101210004C2F6D2F81E00E94E7011150C9F7DC3F90
:10122000A9F7CF5FC53089F7DF91CF911F9108955E
:101230001F93CF93DF93C5E0C150D5E0D15013E3A6
:101240004C2F6D2F81E00E94E7011150C9F7DC3F60
:10125000A9F7C111F1CFDF91CF911F9108951F938D
:10126000CF93DF93C5E0C15015E1D0E04D2F6C2F37
:1012700081E00E94E701DF5FD530C1F71150A9F787
:10128000CC3F89F7DF91CF911F9108951F93CF93A2
:10129000DF93D0E0CCEF13E34D2F6C2F81E00E9461
:1012A000E7011150C9F7CF5FC530A9F7DF5FD5302F
:1012B00089F7DF91CF911F9108951F93CF93DF930B
:1012C000C5E0C150DCEF13E34C2F6D2F81E00E948D
:1012D000E7011150C9F7DF5FD530A9F7C111F1CF90
:1012E000DF91CF911F9108951F93CF93DF93CCEFA0
:1012F00015E1D0E04D2F6C2F81E00E94E701DF5F08
:10130000D530C1F71150A9F7CF5FC53089F7DF910C
:10131000CF911F910895EF92FF920F931F93CF9358
:10132000DF93D0E00AEF1FEFB80117FF02C06F5F35
:101330007F4F75956795E62EC62FC195CC0FCE5F72
:1013400093E3F92E4D2F6C2F8E2D0E94E701FA9416
:10135000F110F8CF0E5F1F4F0E30110529F7DF5F38
:10136000D53001F7DF91CF911F910F91FF90EF9052
:101370000895EF92FF920F931F93CF93DF93D5E0E1
:10138000D1500AEF1FEFB80117FF02C06F5F7F4F08
:1013900075956795E62EC62FC195CC0FCE5F93E36A
:1013A000F92E4D2F6C2F8E2D0E94E701FA94F1102B
:1013B000F8CF0E5F1F4F0E30110529F7D111E0CF86
:1013C000DF91CF911F910F91FF90EF900895EF92D1
:1013D000FF920F931F93CF93DF930AEF1FEFB80194
:1013E00017FF02C06F5F7F4F75956795E62EC62F7A
:1013F000C195CC0FCE5F95E1F92ED0E04D2F6C2F2B
:101400008E2D0E94E701DF5FD530C1F7FA94F1100D
:10141000F4CF0E5F1F4F0E30110509F7DF91CF910A
:101420001F910F91FF90EF900895EF92FF920F930D
:101430001F93CF93DF93D0E009E010E0B80117FFCE
:1014400002C06F5F7F4F75956795E62EC62FC195D9
:10145000CC0FCE5F93E3F92E4D2F6C2F8E2D0E9473
:10146000E701FA94F110F8CF02501109053F8FEF10
:10147000180721F7DF5FD530F9F6DF91CF911F9183
:101480000F91FF90EF900895EF92FF920F931F93AB
:10149000CF93DF93D5E0D15009E010E0B80117FFFA
:1014A00002C06F5F7F4F75956795E62EC62FC19579
:1014B000CC0FCE5F93E3F92E4D2F6C2F8E2D0E9413
:1014C000E701FA94F110F8CF02501109053F8FEFB0
:1014D000180721F7D111DFCFDF91CF911F910F9125
:1014E000FF90EF900895EF92FF920F931F93CF9389
:1014F000DF9309E010E0B80117FF02C06F5F7F4F74
:1015000075956795E62EC62FC195CC0FCE5F95E1F8
:10151000F92ED0E04D2F6C2F8E2D0E94E701DF5F5A
:10152000D530C1F7FA94F110F4CF02501109053FFC
:101530008FEF180701F7DF91CF911F910F91FF9067
:10154000EF9008952F923F924F925F926F927F9209
:101550008F929F92AF92BF92CF92DF92EF92FF92C3
:101560000F931F93CF93DF93CDB7DEB7E3970FB6FB
:10157000F894DEBF0FBECDBF8CE0E8E8F0E0DE01FE
:10158000959601900D928A95E1F78CE0E4E9F0E000
:10159000DE01599601900D928A95E1F78CE0E0EA20
:1015A000F0E0DE011D9601900D928A95E1F78CE046
:1015B000ECEAF0E0DE01119601900D928A95E1F7D8
:1015C000E12CF12C15E044244394512C4C0E5D1E6B
:1015D0004E0C5F1C9DE0692E712C6C0E7D1E6E0CF6
:1015E0007F1C29E1822E912C8C0E9D1E8E0C9F1C3F
:1015F00035E2A32EB12CAC0EBD1EAE0CBF1C94E682
:1016000054E0510FF2E0F10FF9ABF201D080F30199
:101610002080F4013080F501C0800D2D222D432D56
:101620006C2D852F5BAB9AAB0E945700222D432D6A
:101630006C2D89A90E945700222D432D6C2D812FDE
:101640000E9457009AA991505BA99111DECF1150C9
:10165000B1F68FEFE81AF80AECE0EE16F10409F0A3
:10166000B1CFE3960FB6F894DEBF0FBECDBFDF91CA
:10167000CF911F910F91FF90EF90DF90CF90BF908F
:10168000AF909F908F907F906F905F904F903F9022
:101690002F9008950F93CF93C1E000E022E040E047
:1016A00060E08C2F0E9457002FEF8FE794E02150CD
:1016B00080409040E1F700C00000CF5FC53069F77F
:1016C00024E040E060E085E00E9457002FEF8FE7C4
:1016D00094E0215080409040E1F700C0000028E0F5
:1016E00040E060E084E00E9457002FEF8FE794E035
:1016F000215080409040E1F700C0000028E040E029
:1017000060E083E00E9457002FEF8FE794E02150C4
:1017100080409040E1F700C00000CF910F910C9401
:101720001D022F923F924F925F926F927F928F9203
:101730009F92AF92BF92CF92DF92EF92FF920F9360
:101740001F93CF93DF93CDB7DEB7E4970FB6F8942E
:10175000DEBF0FBECDBF81E08EA71FA618AA19AAB3
:101760001AAA85E0E8EBF0E0DE01999601900D926F
:101770008A95E1F785E0EDEBF0E0DE0194960190CB
:101780000D928A95E1F785E0E2ECF0E0DE015F96EC
:1017900001900D928A95E1F78EE1E7ECF0E0DE0131
:1017A000119601900D928A95E1F7AE014F5F5F4F60
:1017B0007A0196E01E015FE1250E311C35E0320D05
:1017C00019E0AE014C5D5F4F2A01FE01B9963F0161
:1017D000465F5F4F4A0157016101F60101916F01B8
:1017E000F20121912F01F30141913F01F401619137
:1017F0004F01F50181915F013CAB9BAB0E9457000B
:10180000ECECFCE13197F1F700C000003CA99BA98A
:101810003C11E3CF1150A9F6915055E0E50EF11CB3
:101820009111CECFE4960FB6F894DEBF0FBECDBFB8
:10183000DF91CF911F910F91FF90EF90DF90CF90AC
:10184000BF90AF909F908F907F906F905F904F90E0
:101850003F902F9008958F929F92AF92BF92CF9218
:10186000DF92EF92FF920F931F93CF93DF93C1E02C
:10187000D0E03EEF832E912CEC2EEA94C401BE0101
:101880000E94BE105B0115E0CC24C394D12CF12C36
:101890000FEF2FEF4FEF61E08F2D0E945700F39471
:1018A000EF14B0F72FEF4FEF61E0812F0E94570048
:1018B0008FEFC81AD80AAC14BD0448F71150E116CE
:1018C00018F32196C630D105B9F6C1E0D0E01C2F3F
:1018D0008DEFC82ED12C95E0F92E8F2D90E00FEFD3
:1018E0002FEF4FEF61E0C817D9072CF48F2D0E941E
:1018F0005700FA94F2CF812F0E94570081E0C81A56
:10190000D10849F7115021F72196C530D105F9F6D4
:10191000DF91CF911F910F91FF90EF90DF90CF90CB
:10192000BF90AF909F908F900895CF92DF92EF92EB
:10193000FF920F931F93CF93DF93CDB7DEB7E2975C
:101940000FB6F894DEBF0FBECDBF99E1E5EEF0E033
:10195000DE015A9601900D929A95E1F799E1EEEF2A
:10196000F0E0DE01119601900D929A95E1F77E016B
:101970002AE1E20EF11C8E010F5F1F4FCC24CA94A6
:10198000C80E89E1D82ED00EF80161918F014C2D3F
:10199000F70181917F010E948B00FFEF2FE382E02E
:1019A000F15020408040E1F700C00000D012ECCFA1
:1019B000E2960FB6F894DEBF0FBECDBFDF91CF9198
:1019C0001F910F91FF90EF90DF90CF9008957F923D
:1019D0008F929F92AF92BF92CF92DF92EF92FF923F
:1019E0000F931F93CF93DF93CDB7DEB7C456D109C2
:1019F0000FB6F894DEBF0FBECDBF782E99E1E7E1B8
:101A0000F1E0DE01A45BBF4F01900D929A95E1F7E2
:101A100099E1E0E3F1E0DE01D39601900D929A9511
:101A2000E1F799E1E9E4F1E0DE015A9601900D92C7
:101A30009A95E1F799E1E2E6F1E0DE011196019075
:101A40000D929A95E1F74E012AE1820E911C5E01FA
:101A500083E3A80EB11CFE01E45BFF4F6F01CE01D2
:101A600001967C0119E1180FF70101917F01F40142
:101A700021914F01F50141915F01F60161916F01E3
:101A8000872D0E945700FFEF2FE382E0F1502040A6
:101A90008040E1F700C000001E11E6CFCC59DF4FB7
:101AA0000FB6F894DEBF0FBECDBFDF91CF911F916F
:101AB0000F91FF90EF90DF90CF90BF90AF909F90ED
:101AC0008F907F9008959F92AF92BF92CF92DF92B6
:101AD000EF92FF920F931F93CF93DF93CDB7DEB7B3
:101AE000CB54D1090FB6F894DEBF0FBECDBF982EF0
:101AF00099E1EBE7F1E0DE01D39601900D929A9522
:101B0000E1F799E1E4E9F1E0DE015A9601900D92E6
:101B10009A95E1F799E1EDEAF1E0DE011196019085
:101B20000D929A95E1F75E012AE1A20EB11C6E01B9
:101B300083E3C80ED11CFE0131967F0119E11E0F0F
:101B4000F70101917F01F50121915F01F6014191BA
:101B50006F0160E0892D0E945700FFEF2FE382E0C4
:101B6000F15020408040E1F700C000001E11E8CF96
:101B7000C55BDF4F0FB6F894DEBF0FBECDBFDF9160
:101B8000CF911F910F91FF90EF90DF90CF90BF907A
:101B9000AF909F9008954F925F926F927F928F9235
:101BA0009F92AF92BF92DF92EF92FF920F931F939B
:101BB000CF93DF93CDB7DEB7C456D1090FB6F894F3
:101BC000DEBF0FBECDBF89E1E7E1F1E0DE01A45B3E
:101BD000BF4F01900D928A95E1F789E1E0E3F1E0D2
:101BE000DE01D39601900D928A95E1F789E1E9E44F
:101BF000F1E0DE015A9601900D928A95E1F789E1B4
:101C0000E2E6F1E0DE01119601900D928A95E1F78E
:101C1000E12CF12C84E6D82E44244394512C4C0E14
:101C20005D1E4E0C5F1C2AE1622E712C6C0E7D1E17
:101C30006E0C7F1C33E3832E912C8C0E9D1E8E0C1C
:101C40009F1C4CE4A42EB12CAC0EBD1EAE0CBF1CD0
:101C500011E0F2010081F3012081F4014081F501DE
:101C60006081812F0E9457001F5F163091F7DA9430
:101C7000D110EECFFFEFEF1AFF0A89E1E816F10469
:101C800049F6CC59DF4F0FB6F894DEBF0FBECDBF7B
:101C9000DF91CF911F910F91FF90EF90DF90BF9058
:101CA000AF909F908F907F906F905F904F9008952E
:101CB0006F927F928F929F92AF92BF92DF92EF923C
:101CC000FF920F931F93CF93DF93CDB7DEB7CB5423
:101CD000D1090FB6F894DEBF0FBECDBF89E1EBE7A7
:101CE000F1E0DE01D39601900D928A95E1F789E14A
:101CF000E4E9F1E0DE015A9601900D928A95E1F750
:101D000089E1EDEAF1E0DE01119601900D928A95EC
:101D1000E1F7E12CF12C84E6D82E66246394712C33
:101D20006C0E7D1E6E0C7F1C2AE1822E912C8C0E77
:101D30009D1E8E0C9F1C33E3A32EB12CAC0EBD1E3A
:101D4000AE0CBF1C11E0F3010081F4012081F5010C
:101D5000408160E0812F0E9457001F5F163099F785
:101D6000DA94D110EFCFFFEFEF1AFF0A89E1E816FE
:101D7000F10489F6C55BDF4F0FB6F894DEBF0FBEE6
:101D8000CDBFDF91CF911F910F91FF90EF90DF902A
:101D9000BF90AF909F908F907F906F900895BF926B
:101DA000CF92DF92EF92FF920F931F93CF93DF9327
:101DB000CDB7DEB7CB54D1090FB6F894DEBF0FBE56
:101DC000CDBF89E1E6ECF1E0DE01D39601900D9202
:101DD0008A95E1F789E1E5EEF0E0DE015A9601909F
:101DE0000D928A95E1F789E1EEEFF0E0DE011196C0
:101DF00001900D928A95E1F78E010F5F1F4F6E01E2
:101E00002AE1C20ED11CCE01C3967C0189E1B82E15
:101E1000BE0CF70141917F01F80161918F014150A2
:101E2000F60181916F010E948B00F9E929E581E0BB
:101E3000F15020408040E1F70000BE10EACFC55BC2
:101E4000DF4F0FB6F894DEBF0FBECDBFDF91CF914D
:101E50001F910F91FF90EF90DF90CF90BF9008956A
:101E60000F931F93CF938C01C0E0F801EC0FF11D8D
:101E70008081882321F00E94DE03CF5FF6CFCF91CF
:101E80001F910F910895EF92FF920F931F93CF939D
:101E90007C01C0E087010C0F111DF80180818823AF
:101EA00041F00E942C05F80180810E942C05CF5F33
:101EB000F1CFCF911F910F91FF90EF90089590ED8A
:101EC000980F9A3010F48551089581548A3108F0A2
:101ED0008AE10895CF93DF93EB010E945F0F25E025
:101EE000829FC0011124FC01E856FD4F85E0DE0110
:101EF00001900D928A95E1F7DF91CF910895CF93EC
:101F0000DF93EB010E945F0F25E0829FC001112447
:101F1000FC01E152FE4F85E0DE0101900D928A95B1
:101F2000E1F7DF91CF9108951BBA8FEF8ABB18BA02
:101F300087BB15BA14BA12BA8FED81BB13BE12BE9D
:101F40001CBE1FBC1EBC1DBC1CBC17BC16BC1BBCD5
:101F50001ABC19BC18BC12BC15BC14BC13BC15BEF1
:101F600014BE19BE1AB880E888B910BE16B81DB8DC
:101F700016BE08958AE0969A2FEF3FE794E021502D
:101F800030409040E1F700C0000096982FEF3FE707
:101F900094E0215030409040E1F700C000008150B3
:101FA00051F708950E94940F0E94BA0F81E593E0C3
:101FB0000E94430F87E593E00E94300F0E94A20A1F
:101FC0000E944A0B0E94910B0E94910B0E94910B60
:101FD0000E942B0C0E948B090E94B9090E94E709FC
:101FE0000E94150A0E94440A0E94730A0E94770800
:101FF0000E948E080E94A5080E94BC080E94D30877
:102000000E94EA080E9401090E9418090E942F09F3
:102010000E9446090E945D090E9474090E94D90726
:102020000E94E3070E94ED070E945F070E94690774
:102030000E9473070E94DB060E94E5060E94EF06DD
:1020400062E070E081E090E00E944E0563E070E0A5
:1020500081E090E00E944E0561E070E082E090E057
:102060000E944E0563E070E082E090E00E944E0521
:1020700061E070E083E090E00E944E0562E070E075
:1020800083E090E00E944E0562E070E081E090E025
:102090000E94AD0563E070E081E090E00E94AD0534
:1020A00061E070E082E090E00E94AD0563E070E0E6
:1020B00082E090E00E94AD0561E070E083E090E096
:1020C0000E94AD0562E070E083E090E00E94AD0503
:1020D0000E9476060E94970681E090E00E940A0620
:1020E00082E090E00E940A0683E090E00E940A06E7
:1020F00081E090E00E94400682E090E00E9440066D
:1021000083E090E00E94400681E00E94950C82E00E
:102110000E94950C83E00E94950C84E00E94950C2F
:1021200085E00E94950C81E00E94E70C82E00E940D
:10213000E70C83E00E94E70C84E00E94E70C85E056
:102140000E94E70C81E00E94630D82E00E94630D13
:1021500083E00E94630D84E00E94630D85E00E948D
:10216000630D0E94CB0D0E94580E0E94CF0E0E945C
:10217000B8060E94B8060E94B80618CF97FB072E33
:1021800016F4009407D077FD09D00E94D21007FC06
:1021900005D03EF4909581959F4F08957095619577
:1021A0007F4F0895AA1BBB1B51E107C0AA1FBB1F8D
:1021B000A617B70710F0A61BB70B881F991F5A95D3
:1021C000A9F780959095BC01CD010895F894FFCFB3
:1021D000000000000101010101000040E2F7FFFFE3
:1021E000BF1D0800081CBEFFFFF7E341000000010F
:1021F0002377FFFFFEDC88000000000001000100E3
:102200000100010000000010801464D9265902006A
:10221000004002500AE893640B00000008402A8145
:102220007CA22C0100000000102142840842840896
:102230001021081021428404040302020304040351
:10224000020203040403020203040403020203045F
:102250000403020203000102030404040404030251
:10226000010000000001020303030201010200005B
:10227000000000010203040404040403020101013C
:102280000102030303020201010101010101010135
:10229000010101010101010101010101010101012E
:1022A000000103070F0F0F0F0F0F0F0F0F0F0F1F5F
:1022B0003F7FFFFFFFFFFFFFFF0000000000012145
:1022C000212121212121616363636363737373F3AC
:1022D000F7FF000000000000000484C4E4F4FCFCEC
:1022E000FCFCFCFCFCFCFEFFFFFFFFFFFEFCF8F02B
:1022F000F0F0F0F0F0F0F0F0F0F0E0C0800000005E
:1023000000000000FFFFFFFFFFFEDEDEDEDEDEDEA0
:10231000DE9E9C9C9C9C9C8C8C8C0C0800FFFFFF80
:10232000FFFFFFFFFB7B3B1B0B03030303030303C5
:10233000030100000000010101010101010101028E
:10234000020202020202030303030304040405223F
:102350003E22221C1E221E221E1C0202021C1E22C3
:1023600022221E3E021E023E02021E023E1C223A93
:10237000021C22223E22221C0808081C08141010ED
:102380001C22120E0A123C0404040422222A3622C1
:1023900022322A26221C2222221C04041C241C2C49
:1023A000122A221C22120E120E1E201C023C0808A9
:1023B00008083E1C222222220814142222142A2A4F
:1023C0002222221408142208080814223E040810AD
:1023D0003E00000000001C322A261C0808080C08D9
:1023E0003E0418221C1C2018201C103E1214181C1D
:1023F000201E021E1C221E021C080810203C1C224B
:102400001C221C1C203C221C88F888887078887844
:10241000887870080808707888888878F8087808BC
:10242000F808087808F87088C808708888F88888DC
:10243000702020207020504040708848382848F094
:10244000101010108888A8D88888C8A89888708824
:102450008888700808788878B048A88870884838D4
:102460004838708070087020202020F87088888894
:1024700088205050888850A8A88888885020508884
:102480002020205088F8102040F800000000007044
:10249000C8A898702020203020F8106088707080C4
:1024A00060807040F848506078807808787088784C
:1024B000087020204080F070887088707080F088EC
:1024C0007056554F4E470043554E4720434855439D
:1024D0002054414E205855414E20323031380000B2
:00000001FF
